:100000000C9439000C9456000C9456000C94560035
:100010000C9456000C9456000C9456000C94410518
:100020000C9456000C9456000C9456000C945600F8
:100030000C9456000C9456000C9456000C945600E8
:100040000C9456000C9456000C9456000C945600D8
:100050000C9456000C9456000C9456000C945600C8
:100060000C9456000C94560009000A010B070C0171
:100070000F0011241FBECFEFD8E0DEBFCDBF12E0CE
:10008000A0E0B1E0EEE2FDE002C005900D92A03AE2
:10009000B107D9F722E0A0EAB2E001C01D92AA3B65
:1000A000B207E1F70E9464050C9495060C940000D9
:1000B0000E947D010C94EA010E948D010C94EA01DA
:1000C000CF93DF93D0E0C0E06C2F8D2F0E948D0185
:1000D0000E94EA01CF5FC830B9F7DF5FD03199F7EE
:1000E000DF91CF9108954A99FECF0895CF92DF9284
:1000F000EF92FF920F931F93CF93DF93CDB7DEB7AD
:10010000C058D1090FB6F894DEBF0FBECDBF80E84E
:10011000E0E2F1E0DE01119601900D928A95E1F79F
:100120000E9460002FEF80E792E0215080409040D5
:10013000E1F700C000008E010F5F1F4FE12C680146
:10014000F12CF60181916F01813021F46F2D8E2DFC
:100150000E945800F394F8E0FF12F3CFE394085F95
:100160001F4F20E1E212EBCFC058DF4F0FB6F894DB
:10017000DEBF0FBECDBFDF91CF911F910F91FF90DA
:10018000EF90DF90CF900C94730052984A9A389871
:1001900039980E944B020E94D0010E94BD047894BD
:1001A0000E9460002FE789EA93E021508040904050
:1001B000E1F700C000000E9476000C946000CF922E
:1001C000DF92EF92FF920F931F93CF93DF93CDB700
:1001D000DEB7C058D1090FB6F894DEBF0FBECDBF51
:1001E00080E8E0EAF1E0DE01119601900D928A9537
:1001F000E1F70E9460002FEF80E792E021508040FD
:100200009040E1F700C000008E010F5F1F4FE12C0E
:100210006801F12CF60181916F01813021F46F2D7D
:100220008E2D0E945800F394F8E0FF12F3CFE39470
:10023000085F1F4F20E1E212EBCFC058DF4F0FB62F
:10024000F894DEBF0FBECDBFDF91CF911F910F910C
:10025000FF90EF90DF90CF900C947300CF92DF92DD
:10026000EF92FF920F931F93CF93DF93CDB7DEB73B
:10027000C058D1090FB6F894DEBF0FBECDBF80E8DD
:10028000E0E2F2E0DE01119601900D928A95E1F72D
:100290000E9460002FEF80E792E021508040904064
:1002A000E1F700C000008E010F5F1F4FE12C6801D5
:1002B000F12CF60181916F01813021F46F2D8E2D8B
:1002C0000E945800F394F8E0FF12F3CFE394085F24
:1002D0001F4F20E1E212EBCFC058DF4F0FB6F8946A
:1002E000DEBF0FBECDBFDF91CF911F910F91FF9069
:1002F000EF90DF90CF900C947300803168F4E82F7A
:10030000F0E0E056FD4F81E090E001C0880F6A9573
:10031000EAF76081682B60830895803188F4E82FC4
:10032000F0E0E056FD4F81E090E09C0102C0220F1A
:10033000331F6A95E2F7B901609580816823608375
:100340000895E82FF0E0E056FD4F8081089598E091
:100350002D9887FF07C02B9A2D9A880F91509111E5
:10036000F7CF08952B98F8CF0F931F93CF93DF9378
:10037000C62F2A98082F10E0C8010E94A701D0E0DC
:10038000CE010E94A701C8010E94A701CE010E94D0
:10039000A7012A9A2D98DF91CF911F910F9108956F
:1003A0000F931F93CF93DF93259A229A239AC8E63F
:1003B000D0E002E710E0FE018491319664910E9442
:1003C000B40122960C171D07B1F7DF91CF911F9151
:1003D0000F910895FF920F931F93CF93DF93C8E07F
:1003E000D0E080E8F82E2A9800E010E0CE010E94CC
:1003F000A701F801E056FD4F88E092912D989F21CA
:100400009923B1F02B9A2D9A81508111F6CF085F74
:100410001F4F0831110551F72A9A2D98F69421970C
:10042000209709F7DF91CF911F910F91FF900895C9
:100430002B98E9CF9FEF980F983010F40C94B401EB
:100440000895CF93C82F8A3019F48DE00E942102BD
:100450008091C00085FFFCCFC093C60080E090E093
:10046000CF9108958091C00087FFFCCF8091C60096
:1004700090E008951092C50083E38093C400E0ECFF
:10048000F0E080818D7F808386E08093C20088E1E8
:100490008093C10008950E943A02E4EBF2E08EE0FE
:1004A00091E09383828380E091E09183808308953B
:1004B00090917C00906490937C0090917A0097607A
:1004C00090937A0090917A00906890937A0090913E
:1004D0007C00982B90937C0090917C00907F90936F
:1004E0007C00833029F190F48130C1F08230E1F05A
:1004F00080917A00806480937A0080917A0086FDF2
:10050000FCCF809178009091790008958430A1F01B
:10051000853071F780917C00856003C080917C00FC
:10052000816080937C00E4CF80917C008260F9CF71
:1005300080917C008360F5CF80917C008460F1CF56
:100540000F931F93CF93DF938C01EB010E9407065B
:1005500060E170E00E949005F80180830E94070628
:1005600068E070E00E9490058883DF91CF911F9131
:100570000F910895CF93DF93DB01EA01F9018230F7
:1005800099F040F481110BC088818150888381E00B
:10059000808302C0833059F0DF91CF9108958C9110
:1005A0008F5F8C931082F8CF88818F5FEFCF8C9113
:1005B0008150F7CF0F931F93CF93DF93C82FD62F80
:1005C00081E090E00E9458028C0180E090E00E945F
:1005D00058029C01DD2381F0D13041F40F3F110519
:1005E000A1F09CF0013013400CF0C3E08C2FDF91A0
:1005F000CF911F910F9108958F3F910541F03CF0ED
:10060000213033409CF3C0E0F1CFC1E0EFCFC2E036
:10061000EDCFEF92FF920F931F93CF93DF937C0167
:100620008B01FC01C191D191BF01AE015527440F4F
:10063000551FC70104960E941706F8018081918119
:10064000F70193838283FE01EE0FFF1FEE0DFF1D66
:10065000638170E02196CC0FDD1FCE0DDF1D8881F8
:1006600090E00E945C00F801618170E0808190E080
:10067000DF91CF911F910F91FF90EF900C94580054
:10068000CF92DF92EF92FF920F931F93CF93DF935E
:10069000EC01B0E1EB2EF12C08E010E00E9407061F
:1006A000B7010E949005D82EC82E0E940706B801F7
:1006B0000E949005682F782F4881598130E020E012
:1006C00013C0FC013196EE0FFF1FEC0FFD1FE08100
:1006D000CE1209C0880F991FFE01E80FF91F838110
:1006E000781301C02F5F3F5F832F90E08417950739
:1006F00040F32111D3CF8D2D962FDF91CF911F91F4
:100700000F91FF90EF90DF90CF9008956F927F92BE
:100710008F929F92AF92BF92CF92DF92EF92FF9211
:100720000F931F93CF93DF93CDB7DEB7CD50D1405A
:100730000FB6F894DEBF0FBECDBF5C010E94C904A6
:10074000462F572FBC01CD5FDE4F488359836A8304
:100750007B83C350D1400E94600081E090E09A8387
:10076000898367E071E06C0F7D1F6F5F7F4FCE0163
:10077000895F9E4F0E94A002C95FDE4F1881C7505B
:10078000D140C85FDE4F6881C850D14070E0812FF2
:1007900090E00E945800F3E07F2E193010F4772487
:1007A0007394C75FDE4F1882C950D140C95FDE4FD6
:1007B00088819981C750D1409C838B83CE0101965B
:1007C0000E944003182F092F692F70E090E00E94CB
:1007D00058007EEEC72E72E0D72E66246394E7E0C1
:1007E0008E2E992493948C0E9D1E2FEF821A920ABE
:1007F000C75FDE4F6881C950D140872D0E94DA0261
:10080000782E0E94C904C65FDE4F688379838A838D
:100810009B83CA50D140CD5FDE4F88819981AA81E8
:10082000BB81C350D140C65FDE4F488159816A8188
:100830007B81CA50D140481B590B6A0B7B0BDB01F3
:10084000CA01A60160E070E0481759076A077B07F4
:1008500008F090C09E01275F3E4FA401BE01695F72
:100860007E4F872D0E94BA02BE01695F7E4FCE0186
:1008700001960E9409030E94C904462F572FBC010C
:10088000CD5FDE4F488359836A837B83C350D14059
:100890006620E9F0C95FDE4F8881C750D1408031C2
:1008A000B0F4C85FDE4F9881C850D140983078F4DA
:1008B000E980FA8041E0242F30E02E153F05E8F072
:1008C000EFE7EE16F104B1F581E0F5018083C35F37
:1008D000DE4F0FB6F894DEBF0FBECDBFDF91CF91D4
:1008E0001F910F91FF90EF90DF90CF90BF90AF904E
:1008F0009F908F907F906F900895F9013196EE0F41
:10090000FF1F61E070E06C0F7D1FE60FF71F508145
:1009100085130CC0220F331FFB01E20FF31F23814D
:10092000921304C071E0E716F10411F44F5FC3CFD6
:10093000612CC6CF81135CCF90135ACFFFEFEF1A13
:10094000FF0AFA82E982CE0101960E944003182F25
:10095000092F692F70E090E00E945800C70165E000
:1009600070E00E947C05892B09F042CF2FE0C21A6B
:10097000D1083ECF61103CCFAACF82E08093B00077
:1009800094E09093B1008093700089EF8093B3005E
:100990000895CF93DF9300D000D0CDB7DEB78FB7E7
:1009A000F8942091B0023091B1024091B20250917E
:1009B000B30229833A834B835C838FBF69817A8139
:1009C0008B819C810F900F900F900F90DF91CF91B2
:1009D0000895E4E6F0E080818F7B8083E0E7F0E03B
:1009E0008081826080830895E0E7F0E080818D7FE0
:1009F0008083E4E6F0E080818064808308958FB78F
:100A0000F8941092B0021092B1021092B2021092B9
:100A1000B3028FBF0895462F572FBC012FB7F8940C
:100A20008091B0029091B102A091B202B091B30254
:100A3000840F951FA61FB71F8093B0029093B10239
:100A4000A093B202B093B3022FBF0895462F572F41
:100A5000BC012FB7F8948091B0029091B102A0919F
:100A6000B202B091B302841B950BA60BB70B809317
:100A7000B0029093B102A093B202B093B3022FBF21
:100A800008951F921FB61F9211248F939F93AF93C7
:100A9000BF938091B0029091B102A091B202B09147
:100AA000B3020196A11DB11D8093B0029093B102D3
:100AB000A093B202B093B302BF91AF919F918F9177
:100AC0001F901FBE1F9018950F92CDB7DEB70E94E2
:100AD000C5000E94C904CB010E940C061982CE01F8
:100AE00001960E9486038981813019F40E942E01AB
:100AF000F5CF0E94DF00F2CFAA1BBB1B51E107C05C
:100B0000AA1FBB1FA617B70710F0A61BB70B881F9D
:100B1000991F5A95A9F780959095BC01CD0108952C
:100B200097FB072E16F4009407D077FD09D00E949A
:100B30007C0507FC05D03EF4909581959F4F089564
:100B4000709561957F4F0895CF92DF92EF92FF925B
:100B5000CF93DF93CDB7DEB72A970FB6F894DEBFF9
:100B60000FBECDBF89879A87A985BA852D913D9102
:100B70004D915C9129833A834B835C8382E49EECA4
:100B8000ACE0BFE1211531054105510549F1CA012C
:100B9000B9012DE133EF41E050E00E9432066901D6
:100BA0007A01A7EAB1E49B01AC010E945106698376
:100BB0007A838B839C83ACEEB4EFA70196010E94ED
:100BC0005F069B01AC0189819A81AB81BC81820F58
:100BD000931FA41FB51FB7FF03C00197A109B04819
:100BE000E985FA8580839183A283B3839F772A96D0
:100BF0000FB6F894DEBF0FBECDBFDF91CF91FF904F
:100C0000EF90DF90CF9008950E94A40508958CE1A5
:100C100091E00E94A4050895A0E0B0E080931C013B
:100C200090931D01A0931E01B0931F0108956817B2
:100C3000790768F4FB01DC01E40FF51FA40FB51F71
:100C400002C002900E9241505040D8F708950C9483
:100C50002906FB01DC0102C001900D924150504079
:100C6000D8F70895052E97FB1EF400940E944906BC
:100C700057FD07D00E94640607FC03D04EF40C9485
:100C8000490650954095309521953F4F4F4F5F4F06
:100C9000089590958095709561957F4F8F4F9F4FE8
:100CA00008950E948606A59F900DB49F900DA49F65
:100CB000800D911D11240895B7FF0C9451060E94D8
:100CC0005106821B930B0895A1E21A2EAA1BBB1B8F
:100CD000FD010DC0AA1FBB1FEE1FFF1FA217B30708
:100CE000E407F50720F0A21BB30BE40BF50B661F1E
:100CF000771F881F991F1A9469F7609570958095E2
:100D000090959B01AC01BD01CF010895A29FB00158
:100D1000B39FC001A39F700D811D1124911DB29F2F
:0E0D2000700D811D1124911D0895F894FFCFD0
:100D2E000000000100000000000032020000000080
:100D3E00000200000000210200000000010000007F
:100D4E000000010101000000000100000001000090
:100D5E000001000100010000000000010100000080
:100D6E00000001010101000000010000010000006F
:100D7E00000100000100000000000101010100005F
:100D8E00000101010101000000000100000000004F
:100D9E000000000100000000000001000000000043
:100DAE00000101010101000000010101010100002B
:100DBE000001000100010000000100000001000020
:100DCE000000000000000000000101010101000010
:100DDE0000010001000100000001000100010000FF
:100DEE0000000000000000000001010101010000F0
:100DFE0000000100000000000000000100000000E3
:100E0E0000000000010000000001010101010000CE
:100E1E0000000000000000000001010101010000BF
:100E2E0000010000000100000001000000010000B0
:100E3E0000000101010000000000000000000000A1
:100E4E000000000000000000000101010100000090
:100E5E000000000000010000000001010100000080
:100E6E00000000000001000000010101010000006F
:100E7E00000000000000000000010101010100005F
:100E8E00000000000000000000010101010100004F
:100E9E000000010000000000000000010000000042
:100EAE00000000000100000000010101010100002E
:100EBE000000000000000000000101010001000020
:00000001FF
